:020000040000FA
:06000000C9EF13F012002D
:0600080004EF04F01200F9
:060018000CEF04F01200E1
:06080000C9EF13F0120025
:0608080094EF13F0120052
:060818009CEF13F012003A
:06082A000300C4270000DA
:10083000FE01000002000000BF270000F3010000DD
:1008400005000000BE270000960000000100000027
:10085000D9CFE6FFE1CFD9FFE652A09A6A6A686A6B
:10086000160E6F6E9F0E6B6E7B0E696E6D8C6E6AD0
:10087000030EE66EE66AE66A710EE66E0F0EE66E2F
:10088000AFEC13F00B6E050EE15E0B506D9CDF6A52
:10089000DF500B6E0C6A100E0B5C000E0C5810E251
:1008A000DF50040DF3CFE9FFF4CFEAFF000EE92695
:1008B000040EEA22EE6AEE6AEE6AEE6ADF2AE8D7F2
:1008C000160E706E68A602D06896FCD700017B6B8E
:1008D0000001806B0001816B826B6D98DF6A040EF2
:1008E000DF5C18E2EA6ADF34FE0BEA36E96E6F0E6F
:1008F000E926000EEA22EE6AED6AEA6ADF34FE0BB0
:10090000EA36E96E670EE926000EEA22EE6AED6A23
:10091000DF2AE5D70001080E6F6F040E706F00012B
:10092000616B0001606BE552E552E7CFD9FF120021
:10093000D9CFE6FFE1CFD9FFE65206D06D6A696AEA
:100940000001606BA19AB0D0000160510FE16D6AA7
:10095000696A160E6F6E9F0E6B6E7B0E696E6DB6BA
:1009600002D06D86FCD70001010E606F00016005AA
:1009700009E16DBA07D0686A696A6980698800010F
:10098000020E606F6850040B05E06950040B02E032
:100990006894BBD86DA202D0A19A86D06850010B92
:1009A00015E06950010B12E053DF0001040E606F87
:1009B0000401400E026F040E036F0401080E016F64
:1009C0000401006B8C0E0401001368906850100B3A
:1009D00005E06950100B02E085D868986850400B1C
:1009E00013E06950400B10E0010EE66EE66A000E5F
:1009F000E66EE66A730EE66EE66A01EC12F00B6EC6
:100A0000060EE15E0B50689C6850200B04E06950B4
:100A1000200B01E04ED86850020B13E06950020B26
:100A200010E0010EE66EE66A000EE66EE66AE66823
:100A30007F0EE66E01EC12F00B6E060EE15E0B50BF
:100A40006A6A040E0001E76E6019E8AE02D0E7346E
:100A500002D0E750605D02E2A19A26D069A623D0B9
:100A6000DF6A040EDF5C1FE268A61AD06CCF88F044
:100A70006896780E0001881502E15DD810D0000E4E
:100A8000E66EE66A880EE66E000EE66E720EE66EA2
:100A9000E66A01EC12F00B6E060EE15E0B5001D01F
:100AA00002D0DF2ADED7A19AE552E552E7CFD9FF7F
:100AB000120070A015D063C0E9FF64C0EAFFEF50D8
:100AC00080080DE16FC0E9FF70C0EAFFEF508408B5
:100AD00006E163C0E9FF64C0EAFF8C0EEF6E709020
:100AE000689A1200698468986D82000EE66EE66A64
:100AF000000EE66EE66A750EE66EE66A01EC12F02E
:100B00000B6E060EE15E0B501200000EE66EE66AFA
:100B1000000EE66EE66A740EE66EE66A01EC12F00E
:100B20000B6E060EE15E0B506D92699468A402D0C4
:100B30006894FCD71200D9CFE6FFE1CFD9FFE65287
:100B4000FD0E000188155EE17E0E00018815E8406B
:100B50007F0B040DF3CF63F0F4CF64F0000E0001BF
:100B60006327040E0001642363C065F064C066F06F
:100B70000001657563C0E9FF64C0EAFFEF503C0BFC
:100B8000E842E8420D083CE163C0E9FF64C0EAFFC7
:100B9000020EE926000EEA22EECF0BF0EFCF0CF0AA
:100BA000480E0B1802E1040E0C1828E163C0E9FF9F
:100BB00064C0EAFF020EE926000EEA22400EEE6E45
:100BC000040EED6EDF6ADF500B6E0C6A080E0B5CD4
:100BD000000E0C5813E2DF50EA6A480FE96E040E6B
:100BE000EA22EF50E66EDF50EA6A400FE96E040E2B
:100BF000EA22E552E750EF6EDF2AE5D70ED801D0A2
:100C000033D806D0FD0E00018815040801E153D841
:100C1000E552E552E7CFD9FF12006FC0E9FF70C07F
:100C2000EAFFEF50800B05E06FC0E9FF70C0EAFFFC
:100C3000EF6A0001776B0001786B00017C6B7D6BC4
:100C400000017B6BBFD8000EE66EE66A000EE66E12
:100C5000E66A030EE66EE66A01EC12F00B6E060E13
:100C6000E15E0B50AEEF08F0020E0001785D02E18C
:100C7000E6DB20D071D8000189511AE165C0E9FF97
:100C800066C0EAFFEE52080EEF6E65C0E9FF66C06F
:100C9000EAFF020EE926000EEA22400EEE6E040E76
:100CA000ED6E65C0E9FF66C0EAFF8C0EEF6E02D004
:100CB0000001896B1200D9CFE6FFE1CFD9FFE652E0
:100CC0006FC0E9FF70C0EAFFEF50400B01E0010E7A
:100CD000DF6E00016F75080E0001605D0CE142C41B
:100CE0006EFF6E50000804E20001100E606F03D02A
:100CF0000001040E606F0001780528E16FC0E9FF74
:100D000070C0EAFF020EE926000EEA22480EEE6EDF
:100D1000040EED6EFDDA020E0001775D07E16FC093
:100D2000E9FF70C0EAFF840EEF6E0FD0DF5007E1DD
:100D30006FC0E9FF70C0EAFFC80EEF6E06D06FC04B
:100D4000E9FF70C0EAFF880EEF6E01D005D8E552CA
:100D5000E552E7CFD9FF1200D9CFE6FFE1CFD9FFA7
:100D6000020EE1260001786B6FC0E9FF70C0EAFF58
:100D7000EF6A040E00016F190B6E70C00CF00BC00F
:100D8000DEFF0CC0DDFFDECFE9FFDDCFEAFFEF6A5B
:100D9000000180AF0DD000018351841107E005D020
:100DA00084C0FAFF00018351F96EFADF0001809FD1
:100DB000020EE15C02E2E16AE552E16EE552E7CF44
:100DC000D9FF120004014051600BE842E842E842BA
:100DD000E842E842000901E064D0040141510C0AF4
:100DE0005FE00B0A4DE00C0A3FE0010A2AE00B0A23
:100DF00026E0020A24E0030A20E0080A11E0010AC2
:100E00000DE00F0A09E0030A01E04AD000017B8FE0
:100E10000001080E606F45D0D9D843D0B4DB41D073
:100E20000001610E796F000E7A6F00017B81000175
:100E3000010E7C6F00017B8F34D027D932D032D89D
:100E400030D0040144510001796F7A6B620E0001C9
:100E50007927000E00017A2300017B810001010E39
:100E60007C6F00017B8F1DD000017B8F04014451FA
:100E7000EA6A620FE96E000EEA2242C4EFFF11D067
:100E8000000EE66EE66A000EE66EE66A020EE66E9A
:100E9000E66A01EC12F00B6E060EE15E0B5001D01B
:100EA00000D01200D9CFE6FFE1CFD9FF040EE12632
:100EB0000401420511E1040140511F0B00090CE13E
:100EC00000017B8F030E0401415D04E10001010E6E
:100ED000876F02D00001876B040142516DE104016C
:100EE00040511F0B020868E1040144510F0B000937
:100EF00063E000017B8F040144BF11D00401445121
:100F00000F0BE96EEA6AD890E936EA36670EE926F1
:100F1000000EEA22EECFDEFFEDCFDDFF10D00401A0
:100F200044510F0BE96EEA6AD890E936EA366F0E43
:100F3000E926000EEA22EECFDEFFEDCFDDFF030E45
:100F40000401415D07E1DECFE9FFDDCFEAFF840E5A
:100F5000EF6E32D0040144510F0B0C6A700F0B6E10
:100F60000F0E0C22020E0BC0DBFF030E0CC0DBFFCA
:100F7000020EDBCFE9FF030EDBCFEAFFEF900401A7
:100F800044AF0DD0DECFE9FFDDCFEAFFEF6ADF74BB
:100F9000DECFE9FFDDCFEAFF400EEF6E0DD0DECFF2
:100FA000E9FFDDCFEAFF880EEF6EDF74DECFE9FFE9
:100FB000DDCFEAFFC80EEF6E040EE15C02E2E16AEB
:100FC000E552E16EE552E7CFD9FF1200800E040131
:100FD000405D5AE10001C00E7B6F04014351030ADA
:100FE0002EE0010A0DE0030A01E04BD00001BC0E27
:100FF000796F250E7A6F120E00017C6F7D6B44D0E5
:1010000004014251F66EF76AD890F636F736820E32
:10101000F626260EF7220900F5CF79F00A00F5CF63
:101020007AF0020E0001F76A7925F66E7A51F722FE
:101030000900F5CF7CF00A00F5CF7DF025D0030E36
:101040000401425D1BE204014251F66EF76AD8903A
:10105000F636F736840EF626260EF7220900F5CF6F
:1010600079F00A00F5CF7AF079C0F6FF7AC0F7FF81
:101070000800F55000017C6F7D6B02D000017B6B96
:1010800003D000017B6B00D01200D9CFE6FFE1CF87
:10109000D9FF020EE1260401486B0401496B0401EB
:1010A00040511F0B020A12E0030A0DE0010A01E0A1
:1010B0003ED000017B8F040148810001870502E1D9
:1010C0000401488334D000017B8F31D000017B8F35
:1010D000040144BF11D0040144510F0BE96EEA6AC8
:1010E000D890E936EA36670EE926000EEA22EECFFE
:1010F000DEFFEDCFDDFF10D0040144510F0BE96E90
:10110000EA6AD890E936EA366F0EE926000EEA223E
:10111000EECFDEFFEDCFDDFFDECFE9FFDDCFEAFF73
:10112000EF50040B03E00401010E486F00D00001F2
:101130007BAF0AD00001480E796F040E7A6F000170
:101140007B810001020E7C6F020EE15C02E2E16A2B
:10115000E552E16EE552E7CFD9FF12006D9800012C
:101160007BBF4CD0000180AF29D00001020E786F08
:101170006FC0E9FF70C0EAFFEE52EF6A6FC0E9FF8F
:1011800070C0EAFFC80EEF6E65C0E9FF66C0EAFFF7
:10119000EE52080EEF6E65C0E9FF66C0EAFF020E70
:1011A000E926000EEA22480EEE6E040EED6E65C0D2
:1011B000E9FF66C0EAFFC80EEF6E1FD065C0E9FF09
:1011C00066C0EAFFEE52080EEF6E65C0E9FF66C02A
:1011D000EAFF020EE926000EEA22400EEE6E040E31
:1011E000ED6E65C0E9FF66C0EAFF8C0EEF6E6FC062
:1011F000E9FF70C0EAFF840EEF6E89D0000180BF66
:1012000086D0040140AF5BD000017C510401465DF3
:1012100000017D510401475904E246C47CF047C4F3
:101220007DF076D80001010E786F65C0E9FF66C0D9
:10123000EAFFEE52080EEF6E65C0E9FF66C0EAFFF6
:10124000020EE926000EEA22400EEE6E040EED6E4E
:1012500065C0E9FF66C0EAFF800EEF6E0001896B92
:1012600063C0E9FF64C0EAFFEE52080EEF6E63C090
:10127000E9FF64C0EAFF020EE926000EEA22400EF2
:10128000EE6E040EED6E63C0E9FF64C0EAFF840EEB
:10129000EF6E0001010E896F6FC0E9FF70C0EAFFB9
:1012A000020EE926000EEA22480EEE6E040EED6EE6
:1012B0006FC0E9FF70C0EAFFC80EEF6E28D00001D2
:1012C000020E786F6FC0E9FF70C0EAFFEE52EF6A5E
:1012D0006FC0E9FF70C0EAFFC80EEF6E65C0E9FF9E
:1012E00066C0EAFFEE52080EEF6E65C0E9FF66C009
:1012F000EAFF020EE926000EEA22480EEE6E040E08
:10130000ED6E65C0E9FF66C0EAFFC80EEF6E120021
:10131000D9CFE6FFE1CFD9FF020EE1260001080E8A
:101320007C5D000E7D5912E27CC0DEFF7DC0DDFFDA
:101330000001775104E10001010E776F06D0000132
:10134000770503E10001020E776F03D0080EDE6E11
:10135000DD6A6FC0E9FF70C0EAFFEF926FC0E9FF7E
:1013600070C0EAFFEF906FC0E9FF70C0EAFF010EA6
:10137000DB50EF126FC0E9FF70C0EAFFEE52DFCF23
:10138000EFFF000EDB5000017C5F010EDB5000011F
:101390007D5B0001480E856F040E866F00017BB1F6
:1013A00023D0D9CFE9FFDACFEAFFEE50ED101BE0F2
:1013B000000179C0F6FF7AC0F7FF792B000E7A237F
:1013C0000800F550E66E000185C0E9FF86C0EAFF1F
:1013D000852B000E8623E552E750EF6EDF06010EE7
:1013E00001E2DB06DED721D0D9CFE9FFDACFEAFF71
:1013F000EE50ED101AE0000179C0E9FF7AC0EAFF73
:10140000792B000E7A23EF50E66E000185C0E9FFCC
:1014100086C0EAFF852B000E8623E552E750EF6E6B
:10142000DF06010E01E2DB06DFD7020EE15C02E21D
:10143000E16AE552E16EE552E7CFD9FF1200D9CF5C
:10144000E6FFE1CFD9FF020EE12663C0E9FF64C0E9
:10145000EAFFEE52EFCFDFFFDFCF0BF00B500001C2
:10146000815D000E825902E281C0DFFFDF500B6E0A
:101470000C6A0B500001815D0001816F0C5000016E
:1014800082590001826F010EDB6ADF50F36E010E9C
:10149000DBCFF4FFF350F45C17E2010EDB50EA6A95
:1014A000480FE96E040EEA22EF50E66E00017EC09E
:1014B000E9FF7FC0EAFF7E2B000E7F23E552E75055
:1014C000EF6E010EDB2AE1D70001000ED8808155B6
:1014D000000E825528E265C0E9FF66C0EAFFEE52C1
:1014E000080EEF6E65C0E9FF66C0EAFF020EE9264E
:1014F000000EEA22480EEE6E040EED6E63C0E9FFA8
:1015000064C0EAFFEF50400B07E165C0E9FF66C029
:10151000EAFFC80EEF6E06D065C0E9FF66C0EAFFBD
:10152000880EEF6E26D065C0E9FF66C0EAFFEE5276
:10153000080EEF6E65C0E9FF66C0EAFF020EE926FD
:10154000000EEA22400EEE6E040EED6E65C0E9FF5D
:1015500066C0EAFF840EEF6E00018351841107E03C
:1015600005D084C0FAFF00018351F96EFADF000153
:10157000809F020EE15C02E2E16AE552E16EE55213
:10158000E7CFD9FF1200D9CFE6FFE1CFD9FFE6526E
:1015900000017B8F030EE66EE66AE66A710EE66E68
:1015A0000F0EE66EAFEC13F00B6E050EE15E0B5006
:1015B000DF6ADF500B6E0C6A100E0B5C000E0C58CD
:1015C00010E2DF50040DF3CFE9FFF4CFEAFF000E85
:1015D000E926040EEA22EE6AEE6AEE6AEE6ADF2A75
:1015E000E8D76D8C010EE66EE66AE66A620EE66E7C
:1015F000000EE66EAFEC13F00B6E050EE15E0B50C5
:101600006D9C0001080E6F6F040E706F0001000EDC
:10161000636F040E646F63C065F064C066F042C41B
:1016200061F00001615104E10001100E606F13D000
:10163000010EE66EE66A610EE66E000EE66E010EC3
:10164000E66EE66A01EC12F00B6E060EE15E0B50E0
:101650000001200E606FE552E552E7CFD9FF12007E
:10166000D9CFE6FFE1CFD9FF020EE126000EDE6EF4
:10167000040EDD6EFD0EDB50E8240D6EFE0EDB5019
:10168000040DF3500D24040DF3500B6E0C6A020E82
:101690000F0B05E0D8900C320B32E806FBE1D89036
:1016A0000B360C36D8900B360C36D9CFE9FFDACF93
:1016B000EAFF0B50EE260C50ED22DECFE9FFDDCF26
:1016C000EAFFEF9EFD0EDB500FE1FE0EEA6ADB340F
:1016D000FE0BEA36E96E670EE926000EEA22DECF3F
:1016E000EEFFDDCFEDFF0ED0FE0EEA6ADB34FE0B1F
:1016F000EA36E96E6F0EE926000EEA22DECFEEFF33
:10170000DDCFEDFFDECFE9FFDDCFEAFFEF9CDECFDF
:10171000E9FFDDCFEAFF040EE926000EEA22EF8C96
:10172000020EE15C02E2E16AE552E16EE552E7CFCA
:10173000D9FF1200D9CFE6FFE1CFD9FF020EE12693
:10174000FE0EDB500C6A700F0B6E0F0E0C220BC0DE
:10175000DEFF0CC0DDFFDECFE9FFDDCFEAFFFD0ECF
:10176000DBCFEFFFFD0EDBA407D0E66AFE0EDBCF7A
:10177000E6FF76DFE552E552FD0EDBA208D0010E52
:10178000E66EFE0EDBCFE6FF6BDFE552E552020EA2
:10179000E15C02E2E16AE552E16EE552E7CFD9FF92
:1017A0001200D9CFE6FFE1CFD9FF020EE126FE0EEF
:1017B000DB5020E165C0E9FF66C0EAFFEE52080E8B
:1017C000EF6E65C0E9FF66C0EAFF020EE926000E73
:1017D000EA22400EEE6E040EED6E65C0E9FF66C0B3
:1017E000EAFF8C0EEF6E6FC0E9FF70C0EAFF840E57
:1017F000EF6E3DD0FD0EDB50E8240D6EFE0EDB508B
:10180000040DF3500D24040DF3CF0BF0F4CF0CF0C6
:10181000000E0B26040E0C220BC0DEFF0CC0DDFFF9
:10182000840E0B6EDECFE9FFDDCFEAFF0B50EF1227
:10183000FD0EDB50E8240D6EFE0EDB50040DF35060
:101840000D24010F040DF3CF0BF0F4CF0CF0000EBC
:101850000B26040E0C220BC0DEFF0CC0DDFF840E35
:101860000B6EDECFE9FFDDCFEAFF0B50EF12020E69
:10187000E15C02E2E16AE552E16EE552E7CFD9FFB1
:101880001200D9CFE6FFE1CFD9FF020EE126FD0E0F
:10189000DB500FE0FE0EEA6ADB34FE0BEA36E96E3F
:1018A0006F0EE926000EEA22EECFDEFFEDCFDDFF60
:1018B0000ED0FE0EEA6ADB34FE0BEA36E96E670EE6
:1018C000E926000EEA22EECFDEFFEDCFDDFFD9CF15
:1018D000E9FFDACFEAFFEE50ED1003E1F36AF46AB4
:1018E00049D0DECFE9FFDDCFEAFF020EE926000E88
:1018F000EA22FB0EDBCFEEFFFC0EDBCFEDFFDECFEF
:10190000E9FFDDCFEAFFEE52FA0EDBCFEFFF400E2C
:101910000B6EDECFE9FFDDCFEAFF0B50EF16880E2E
:101920000B6EDECFE9FFDDCFEAFF0B50EF12FD0EAD
:10193000DB500CE0FE0EEA6ADB34FE0BEA36E96EA1
:101940006F0EE926000EEA22EF740BD0FE0EEA6A53
:10195000DB34FE0BEA36E96E670EE926000EEA225A
:10196000EF74DECF0BF0DDCF0CF00BC0F3FF0CC03B
:10197000F4FF00D0020EE15C02E2E16AE552E16EA2
:10198000E552E7CFD9FF1200D9CFE6FFE1CFD9FF6B
:101990006DA84ED0FE0EEA6ADB34FE0BEA36E96E25
:1019A0006F0EE926000EEA22EE50EFCFEAFFE96E55
:1019B000400EEE16EE6AEE6AEE6AFE0EEA6ADB345E
:1019C000FE0BEA36E96E6F0EE926000EEA22EE50B3
:1019D000EFCFEAFFE96EEE7CFE0EEA6ADB34FE0B27
:1019E000EA36E96E6F0EE926000EEA22EF74400E29
:1019F0000B6EFE0EEA6ADB34FE0BEA36E96E6F0E02
:101A0000E926000EEA22EE50EFCFEAFFE96E0B5016
:101A1000EF16FE0EEA6ADB34FE0BEA36E96E6F0E55
:101A2000E926000EEA22EE50EFCFEAFFE96EEF7CE6
:081A3000E552E7CFD9FF1200D7
:081A3800D9CFE6FFE1CFD9FF91
:101A4000080EE126040EDB6A050EDB6A060EDB6A71
:101A5000010EF36E070EF3CFDBFF030E0101805D75
:101A600015E1FD0EDBCFE9FFFE0EDBCFEAFFF3C190
:101A7000EFFFFB0EDBCFE9FFFC0EDBCFEAFFF4C18B
:101A8000EFFF020EF36EF46AF4D007D0430E0101AB
:101A9000805D03E2F36AF46AECD0030EDE6EDD6A69
:101AA000DECF0BF0DDCF0CF0D8900C5004E6130E17
:101AB0000B5C000E0C5821E2DECFE9FFDDCFEAFF20
:101AC000000EE926010EEA22EF500A0809E2040E90
:101AD000DBCFE7FF070EDB50E712040EE7CFDBFF9B
:101AE000070EDBCFF3FFF39EF346070EF3CFDBFFCA
:101AF000020EDE26000EDD22D3D7010EF36E070E96
:101B0000F3CFDBFF100EDE26000EDD22DECF0BF062
:101B1000DDCF0CF0100E0B26000E0C22020E0BC0B7
:101B2000DBFF030E0CC0DBFFDECF0BF0DDCF0CF0D4
:101B3000020EDBCF0DF0030EDBCF0EF00C500E18B3
:101B4000E8AE02D00E3404D00D500B5C0E500C5891
:101B500021E2DECFE9FFDDCFEAFF000EE926010E2C
:101B6000EA22EF500A0809E2050EDBCFE7FF070E75
:101B7000DB50E712050EE7CFDBFF070EDBCFF3FFED
:101B8000F39EF346070EF3CFDBFF020EDE26000EB8
:101B9000DD22CAD7010EF36E070EF3CFDBFFDECFD7
:101BA0000BF0DDCF0CF0100E0B26000E0C22020EF7
:101BB0000BC0DBFF030E0CC0DBFFDECF0BF0DDCF75
:101BC0000CF0020EDBCF0DF0030EDBCF0EF00C504D
:101BD0000E18E8AE02D00E3404D00D500B5C0E503F
:101BE0000C5821E2DECFE9FFDDCFEAFF000EE92647
:101BF000010EEA22EF500A0809E2060EDBCFE7FFEA
:101C0000070EDB50E712060EE7CFDBFF070EDBCF38
:101C1000F3FFF39EF346070EF3CFDBFF020EDE2643
:101C2000000EDD22CAD7060EDB1CF36E050EDB505C
:101C3000F35C03E0F36AF46A1CD0FD0EDBCFE9FF2E
:101C4000FE0EDBCFEAFF040EDBCFEFFFFB0EDBCF98
:101C5000E9FFFC0EDBCFEAFF050EDBCFEFFF050E41
:101C6000DBCFF4F1040EDBCFF3F1010EF36EF46A77
:101C700000D0080EE15C02E2E16AE552E16EE55255
:101C8000E7CFD9FF1200D9CFE6FFE1CFD9FF0B0E86
:101C9000E126020EDB6A100EF36E030EF3CFDBFFBC
:101CA000040EDB6A050EDB6A080EDB6A090EDB6ACE
:101CB0000D0E0101805D03E2F36AF46AE2D0DE6A90
:101CC000DD6ADECF0BF0DDCF0CF0010180510001A9
:101CD0000CAE02D0D89003D00B5C000E0C586AE218
:101CE000DF50010B02E0000E01D0010EE76E0A0E7C
:101CF000E7CFDBFF0A0EDB5020E1DECFE9FFDDCFCF
:101D0000EAFF000EE926010EEA22EF500C0810E26D
:101D1000020EDBCF0BF0030EDBCF0CF0D950040F1B
:101D2000E96EDACFEAFF0B50EE120C50ED1204D040
:101D3000DF2A010E01E3DB2A21D00A0EDB041EE1BB
:101D4000DECFE9FFDDCFEAFF000EE926010EEA2231
:101D5000EF500C0813E3020EDBCF0BF0030EDBCFCA
:101D60000CF0D950040FE96EDACFEAFF0B50EE12F7
:101D70000C50ED12DF2A010E01E3DB2AD950020FCD
:101D8000E96EDACFEAFF010E0F0B06E0EC52D890B5
:101D9000ED32EF32E806FAE1DF2A010E01E3DB2A39
:101DA000D950020FE96EDACFEAFFEE50ED1001E1F3
:101DB00001D087D7040EDBCF0BF0050EDBCF0CF084
:101DC000060ED8900C320B32E804FBE11F0E0B1606
:101DD000000E0C16060E0BC0DBFF3F0EE76E040E66
:101DE000DBCF0BF0050EDBCF0CF0E7500B160C6AC7
:101DF000070E0BC0DBFF050EDB50080B02E0010EE7
:101E000001D0000EE76E080EE7CFDBFF060EDB50B9
:101E10000101F55D0FE1070EDB500101F65D0AE1FE
:101E2000080EDB500101F75D05E1010EF36E090EAE
:101E3000F3CFDBFF060EDBCFF5F1070EDBCFF6F1BC
:101E4000080EDBCFF7F1FD0EDBCFE9FFFE0EDBCF97
:101E5000EAFF060EDBCFEFFFFB0EDBCFE9FFFC0E48
:101E6000DBCFEAFF070EDBCFEFFF090EDB5005E10A
:101E7000010EF36EF46A05D004D0020EF36EF46A1C
:101E800000D00B0EE15C02E2E16AE552E16EE55240
:061E9000E7CFD9FF1200AC
:0A1E96000101FE6BBD6ACA6A9D924D
:101EA0009E92F290F2861200D9CFE6FFE1CFD9FFE1
:101EB000030EE126040E0101FE5D01E0E6D0010102
:101EC000E151E21102E1000E08D0E1C1E9FFE2C1F7
:101ED000EAFFEF50800B01E0010E000901E0D5D0D0
:101EE0000101005150081BE2D950010FE66E000EAF
:101EF000DA20E66ED9CFE6FFDACFE6FF1CEC0DF074
:101F0000E552E552E552E552F3CF0BF0F4CF0CF079
:101F1000010E0B1801E10C5001E0B3D01AD0D950DA
:101F2000010FE66E000EDA20E66ED9CFE6FFDACFBB
:101F3000E6FF43EC0EF0E552E552E552E552F3CFF1
:101F40000BF0F4CF0CF0010E0B1801E10C5001E086
:101F500098D0050EDF5C01E094D0010EDB50340A0E
:101F600061E0060A59E0040A51E01F0A49E01C0A30
:101F700041E0040A39E00D0A31E0210A29E0160A9D
:101F800021E01D0A19E0030A11E0340A09E0010A00
:101F900001E04DD0520EF36E020EF3CFDBFF49D0BD
:101FA000510EF36E020EF3CFDBFF43D0500EF36EF3
:101FB000020EF3CFDBFF3DD04F0EF36E020EF3CFD8
:101FC000DBFF37D0280EF36E020EF3CFDBFF31D0EC
:101FD000100EF36E020EF3CFDBFF2BD0060EF36E66
:101FE000020EF3CFDBFF25D0290EF36E020EF3CFE6
:101FF000DBFF1FD0130EF36E020EF3CFDBFF19D001
:102000002C0EF36E020EF3CFDBFF13D01B0EF36E1C
:10201000020EF3CFDBFF0DD0150EF36E020EF3CFE1
:10202000DBFF07D0090EF36E020EF3CFDBFF020ECB
:10203000DB6A0401516B0401526B020EDBCF53F4D7
:102040000401546B0401556B0401566B0401576B7A
:102050000401586B080EE66E510EE66E040EE66E35
:10206000010EE66E010EE66E41EC0CF00B6E050EF5
:10207000E15E0B50F3CFE1F1F4CFE2F10101010E8B
:10208000FF6F0101FE6BF28639D00101FF5136E08E
:102090000101E151E21102E1000E08D0E1C1E9FFC6
:1020A000E2C1EAFFEF50800B01E0010E000926E1DA
:1020B0000401516B0401526B0401536B0401546B16
:1020C0000401556B0401566B0401576B0401586BF6
:1020D000080EE66E510EE66E040EE66E010EE66E1A
:1020E000010EE66E41EC0CF00B6E050EE15E0B503E
:1020F000F3CFE1F1F4CFE2F10101FF6B030EE15CFC
:1021000002E2E16AE552E16EE552E7CFD9FF120043
:10211000DACFE4FFE2CFDAFFE9CFE4FFEACFE4FF72
:10212000E652D9CFE6FFE1CFD9FF020EE126DF6A02
:10213000010EDB6AF250080B21E0F250010B1EE0A9
:102140000101FE5119E1100E811416E1F296898009
:10215000960ECB6E090ECA6E9E929D82CA840101B4
:10216000806B01018051EA6A000FE96E010EEA22DC
:10217000EF6A0101020EFE6FF29056D09D50020BE5
:1021800053E09E50020B50E00101FE51030A0CE0A7
:10219000010A01E011D081A806D0010EDF6E010115
:1021A000030EFE6F00D008D081B805D0010EDF6E9F
:1021B0000101020EFE6F00D0DF5015E00101802BFF
:1021C000800E0101805D06E10101FE6BCA94F2867A
:1021D000899008D001018051EA6A000FE96E010E72
:1021E000EA22EF6A18D0010EDB5015E1010180519F
:1021F000EA6A000FE96E010EEA22EF2A010180511E
:10220000EA6A000FE96E010EEA22EF50640803E16A
:10221000DE52010EDD6E010EDB5005E00101040E01
:10222000FE6FCA9489909E92020EE15C02E2E16A1E
:10223000E552E16EE552E7CFD9FFE552E5CFEAFF7F
:0A224000E5CFE9FFE5CFDAFF11005A
:06224A0098D84BEC0FF0E8
:1022500098EC04F0010E0001E76E6019E8AE02D0C0
:10226000E73402D0E750605D03E36D50020B03E0FA
:102270008990EED717D0200E0001E76E6019E8AE06
:1022800002D0E73402D0E750605D06E289800101A8
:10229000010EE46FDDD706D00101E45103E089901F
:1022A0000101E46B0101DF51E01102E1000E08D0F1
:1022B000DFC1E9FFE0C1EAFFEF50800B01E0010E52
:1022C000000913E1010EE66E500EE66E040EE66E96
:1022D000E66A010EE66E41EC0CF00B6E050EE15E57
:1022E0000B50F3CFDFF1F4CFE0F154EC0FF0B0D7A7
:1022F0001200D9CFE6FFE1CFD9FFE652300EDF6EF4
:1023000093888B949494BD6ACA6A0101100EE76F9A
:10231000270EE86F0101E7C10BF0E8C10CF0E707F9
:10232000000EE85B0B500C1001E0F4D781B802D02E
:10233000000EDB809E929D92520ECB6E050ECA6EF1
:10234000290EBE6E1C0EBD6E0101400EE76F9C0E85
:10235000E86F0101E7C10BF0E8C10CF0E707000EE0
:10236000E85B0B500C1001E0F4D781B8DF82DF503E
:1023700000D0E552E552E7CFD9FF12000F0EC1128F
:10238000B56A28EC04F00101DF6BE06B0101E16B41
:10239000E26B94948B9489809290BD6ABA6ACD6AFC
:1023A0009F80CA6A9F82F18E8A6A936A9388F290AC
:1023B000F296F1809384F28CF28E120012001200D9
:1023C0001200120061EF12F012001E0EE66E010EF6
:1023D000E66E9AEC0BF0E552E552010EE66E500EF9
:1023E000E66E040EE66EE66A010EE66E41EC0CF057
:1023F0000B6E050EE15E0B50F3CFDFF1F4CFE0F191
:102400001200D9CFE6FFE1CFD9FFFD0EDBCF06F0FA
:10241000FE0EDBCF07F0720E061801E1075033E025
:10242000E868061802E17F0E07182BE0740E061804
:1024300001E1075024E0750E061801E107501DE088
:10244000730E061801E1075016E0030E061801E1AD
:1024500007500FE0020E061801E1075008E0010ED8
:10246000061801E1075001E010D0AFDF0FD0ACDF5C
:102470000DD0A8DF0BD0A4DF09D0A0DF07D09FDFED
:1024800005D09FDF03D0000001D000D0010E00D0A6
:10249000E552E7CFD9FF1200040148B100D0120085
:1024A0000001480E7E6F040E7F6F080E0001816FE1
:1024B000826B0001980E836F240E846F0001808F61
:0224C000120008
:0E24C200040140511F0B010801E076D0040117
:1024D000445101E072D0060E0401415D2AE104017D
:1024E0004351230A25E0010A13E0030A01E021D049
:1024F000000161050CE10001E00E796F250E7A6F95
:10250000090E00017C6F7D6B0001C00E7B6F11D046
:10251000000161050CE10001430E796F260E7A6F10
:102520003F0E00017C6F7D6B0001C00E7B6F01D000
:1025300000D004014051600BE842E842E842E84222
:10254000E842010801E039D0040141510B0A2FE0B3
:10255000080A20E0090A18E0080A09E00B0A04E06A
:10256000080A01E02AD029D050EC12F026D0000150
:10257000FC0E796F010E7A6F010E00017C6F7D6B8E
:102580000001C10E7B6F19D00001800E7B6F43C428
:10259000FCF113D00001FD0E796F010E7A6F010E70
:1025A00000017C6F7D6B0001810E7B6F06D0000106
:0C25B000800E7B6F42C4FDF100D01200D1
:0425BC001201000206
:1025C00000000008D80455000100010200010902C2
:1025D0002900010100C032090400000203010100CA
:1025E000092111010001223F0007058103080001B4
:1025F00007050103080001040309043403440061D2
:10260000006E006700650072006F007500730020A7
:1026100000500072006F0074006F00740079007049
:102620000065007300200049006E0063002E001456
:102630000355005300420020004900520074006F0F
:1026400000790005010906A101050719E029E71530
:102650000025017501950881029501750881039592
:102660000575010508190129059102950175039168
:10267000039506750815002565050719002965816C
:0A26800000C0CE25F725FB252F260C
:06268A002A0EF66E080E98
:10269000F76E000EF86E01010900F550EE6F0900AB
:1026A000F550EF6F03E1EE6701D03DD00900F55022
:1026B000E96F0900F550EA6F0900F550EB6F09006A
:1026C0000900F550E96E0900F550EA6E09000900AD
:1026D0000900F550EC6F0900F550ED6F0900090095
:1026E000F6CFF0F1F7CFF1F1F8CFF2F1E9C1F6FF53
:1026F000EAC1F7FFEBC1F8FF0101EC5302E1ED5332
:1027000007E00900F550EE6EEC07F8E2ED07F9D7A7
:10271000F0C1F6FFF1C1F7FFF2C1F8FF0101EE07CA
:08272000000EEF5BBFD71200B1
:082728000001965101E003D00D
:1027300088EF10F000D01200D8CFE4FFE0CFE4FF24
:10274000E46EDACFE4FFE2CFDAFFE652E552E5CFFE
:0E275000DAFFE550E5CFE0FFE5CFD8FF10003F
:02275E00FE0E6D
:10276000E3CFE9FFFF0EE3CFEAFFE9CFF3FFEACFC4
:10277000F4FFFB0EE35003E1FC0EE35009E0FB0E17
:10278000E30602E2FC0EE306FD0EE350EE6EF1D727
:02279000120035
:0E27920013EE00F023EE00F0F86A0A9C45EC0E
:0E27A00013F0DEEC13F025EC11F0FBD7120065
:0227AE0000EE3B
:0C27B00000F00F0EEE6AEA62FDD7120086
:0227BC00120009
:0127BE00001A
:0127BF000019
:0427C0000000000015
:0227C400000013
:020000040030CA
:0100000024DB
:010001000EF0
:010002003FBE
:010003001EDE
:010005008179
:010006008178
:010008000FE8
:01000900C036
:01000A000FE6
:01000B00E014
:01000C000FE4
:01000D0040B2
:00000001FF
